:020000040800F2
:10000000F0060020290200088908000809050008F8
:1000100085080008E3020008990E000800000000AF
:10002000000000000000000000000000510A00086D
:10003000310400080000000005090008410B000819
:10004000430200084302000843020008430200087C
:10005000430200084302000843020008430200086C
:10006000430200084302000843020008430200085C
:1000700043020008E90200084302000843020008A6
:10008000430200084302000843020008430200083C
:10009000430200084302000843020008430200082C
:1000A000430200084302000843020008430200081C
:1000B000430200084302000843020008430200080C
:1000C00043020008430200084302000843020008FC
:1000D00043020008430200084302000843020008EC
:1000E00043020008430200084302000843020008DC
:1000F00043020008430200084302000843020008CC
:1001000043020008430200084302000843020008BB
:1001100043020008430200084302000843020008AB
:10012000430200084302000843020008430200089B
:10013000430200084302000843020008430200088B
:10014000430200084302000843020008430200087B
:10015000430200084302000843020008430200086B
:10016000430200084302000843020008430200085B
:10017000430200084302000843020008430200084B
:10018000430200084302000800F002F800F03CF8C7
:100190000AA090E8000C82448344AAF10107DA45E2
:1001A00001D100F031F8AFF2090EBAE80F0013F0F8
:1001B000010F18BFFB1A43F001031847B01A0000E3
:1001C000D01A0000103A24BF78C878C1FAD8520774
:1001D00024BF30C830C144BF04680C6070470000C1
:1001E0000023002400250026103A28BF78C1FBD840
:1001F000520728BF30C148BF0B6070471FB501F0E0
:100200002AFD1FBD10B510BD00F031F81146FFF7F3
:10021000F5FF00F03FFF00F04FF803B4FFF7F2FFE7
:1002200003BC00F057F80000094880470948004720
:10023000FEE7FEE7FEE7FEE7FEE7FEE7FEE7FEE796
:10024000FEE7FEE704480549054A064B70470000F3
:10025000490B000889010008F0000020F00600208A
:10026000F0020020F002002070477047704775468A
:1002700000F02CF8AE4605006946534620F0070012
:10028000854618B020B5FFF7DDFFBDE820404FF0F0
:1002900000064FF000074FF000084FF0000B21F070
:1002A0000701AC46ACE8C009ACE8C009ACE8C0093D
:1002B000ACE8C0098D46704710B50446AFF3008026
:1002C0002046BDE81040FFF7A8BF00000048704777
:1002D0008C00002001491820ABBEFEE7260002007A
:1002E000704700BFFEE7000010B50949094800F05B
:1002F00031F8002405E00848005D08490855601CF5
:1003000084B2042CF7DB0121024800F03DF810BD57
:100310000080201040600240180000201C000020D7
:100320000246094B9A4201D2084801E006481038BB
:1003300001F000531BB1064B0B40C36002E0044BBD
:100340000B40836070470000106402400060024070
:100350007D0F7D0F0246094B9A4201D2084801E009
:100360000648103801F000531BB1064B0B40C36028
:1003700002E0044B0B4083607047000010640240B1
:10038000006002407D0F7D0F21B1026842F0010242
:10039000026003E0026822F001020260704710B5BB
:1003A00001F080034BB122B1436943F08003436104
:1003B00003E0436923F08003436180290BD02AB115
:1003C000036801F01E042343036004E0036801F0A6
:1003D0001E04A343036010BD10B500220268134B36
:1003E0001A40CC680B6823434C6923438C69234330
:1003F000CC6923430C6A23434C6A23438C6A23430E
:100400004C6B23438C6B23431A430260426922F0F6
:100410000702D1E90B3423431A4342610B6943605D
:100420004B6883608B68C36010BD00003F801CF088
:100430007047F0B50A4600210023002400BF3DE0CC
:10044000012505FA01F3156805EA03049C4234D13D
:1004500005684F000326BE40B543056015794E0080
:10046000B5400668354305601579012D02D0157930
:10047000022D16D185684F000326BE40B543856026
:1004800055794E00B540866835438560456801263C
:100490008E40B5434560456896798E40B6B2354387
:1004A0004560C5684F000326BE40B543C560D57999
:1004B0004E00B540C6683543C560491C1029BFD3FE
:1004C000F0BDF0B5002300244D07ED0E02FA05F350
:1004D000CE1000F1200555F826504E07F70E0F26D6
:1004E000BE40B543CF1000F1200646F82750CE108D
:1004F00000F1200555F8265045EA0304CE1000F11E
:10050000200545F82640F0BD00BFFEE721B1028876
:1005100042F48062028004E002884FF6FF331A4002
:100520000280704770B50246002400250023002099
:10053000958A138B1B0445EA030626F07F4404EAE0
:1005400001068E4201D1012000E0002070BD21B1E2
:10055000028842F00102028004E002884FF6FE7336
:100560001A4002807047000000B587B001210220C8
:1005700000F0CAF90121022000F0C6F90121480566
:1005800000F0D2F90121480500F0DEF900214FF416
:10059000001000F0D9F902208DF8180001208DF824
:1005A0001A004020059002208DF8190000208DF8D7
:1005B0001B0005A91748FFF73CFF04220621154838
:1005C000FFF77FFF042207211248FFF77AFF802000
:1005D000059005A90F48FFF72CFF0020ADF8080093
:1005E0004BF6FF70ADF80A000020ADF80C004FF498
:1005F0008060ADF80E000001ADF8100006480190D3
:1006000001A9064800F042F801210448FFF79FFFC6
:1006100007B000BD00040240A08601000054004065
:1006200021B1028842F48072028004E002884FF611
:10063000FF631A400280704721B1028842F40072C1
:10064000028004E002884FF6FF531A400280704790
:100650000CB50246002000230193009300920B0F7B
:10066000019321F07F41019B1BB1009B1433009348
:1006700003E0090C009B18330093009B1B680B40A0
:100680000BB1012000E000200CBD00002DE9FF4768
:1006900004460D460026B1460427DFF8CC80A68824
:1006A0004FF6C0700640684600F05EF9DDF808803D
:1006B0002E48B8FBF0F01FFA80F946EA0906A6803A
:1006C00020884FF6FE7108402080002628492868BF
:1006D00088420CD828684000B8FBF0F087B2042F9D
:1006E00000DA04273E4309F10100208427E0E8886E
:1006F0004BF6FF71884206D1286800EB4000B8FB3A
:10070000F0F087B209E0286800EBC00101EB0010AF
:10071000B8FBF0F087B247F48047C7F30B0008B985
:1007200047F0010747F4004006434FF4967009FB79
:1007300000F04FF47A7190FBF1F0401C2084A68306
:10074000208840F00100208026884FF6F5300640D2
:10075000A8886989084306432680A889298908430F
:100760002081BDE8FF87000000127A0040420F00A0
:10077000A08601002DE9F0478046894615461E46B1
:10078000089C002714B90120BDE8F08700BF4FF492
:1007900000314046FFF75CFF0028F8D101214046B8
:1007A000FFF7B4FE01214046FFF73AFF00BF2C4996
:1007B0004046FFF7B7FE0028F9D0002249464046E0
:1007C00000F056F800BF27494046FFF7ABFE00286F
:1007D000F9D02946404600F053F800BF2149891C52
:1007E0004046FFF79FFE0028F8D001214046FFF762
:1007F00017FF00BF1A494046FFF794FE0028F9D0C2
:1008000001224946404600F033F800BF1449491C14
:100810004046FFF787FE0028F8D019E0012C07D1E9
:1008200000214046FFF772FE01214046FFF704FF1A
:1008300000BF0B493F314046FFF774FE0028F8D057
:10084000404600F011F8F055781CC7B2601E84B223
:10085000002CE3D101214046FFF758FE002093E72A
:1008600001000300820007000146088AC0B27047F9
:1008700012B141F0010101E001F0FE010182704777
:100880000182704700BFFEE77047000070B500218D
:1008900000230F22C4781CB3174C246804F4E064CE
:1008A000C4F5E064C4F30721C1F10404E3B20A41D2
:1008B00044789C40E1B28478144021430C07210E17
:1008C0000E4C05786155047804F01F050124AC40F6
:1008D00005786D11AD0005F1E025C5F8004109E08E
:1008E000047804F01F050124AC40054D067876110C
:1008F00045F8264070BD00000CED00E000E400E08B
:1009000080E100E07047000029B1064A1268024306
:10091000044B1A6004E0034A12688243014B1A60D8
:10092000704700003038024029B1064A126802437D
:10093000044B1A6004E0034A12688243014B1A60B8
:10094000704700004038024029B1064A126802434D
:10095000044B1A6004E0034A12688243014B1A6098
:100960007047000020380240F0B50021002200242A
:10097000022500260223324F3F6807F00C0121B107
:10098000042905D0082937D105E02E4F076036E04D
:100990002D4F076033E02A4F3F1F3F68C7F3805653
:1009A000274F3F1F3F6807F03F036EB1264FB7FB4D
:1009B000F3F7DFF88CC0ACF1040CDCF800C0CCF32A
:1009C000881C07FB0CF40CE01E4FB7FBF3F7DFF8B5
:1009D00070C0ACF1040CDCF800C0CCF3881C07FB41
:1009E0000CF4174F3F1F3F68C7F301477F1C7D0082
:1009F000B4FBF5F7076002E0124F076000BF00BFCD
:100A00000F4F3F6807F0F0010909104F7A5C076843
:100A1000D74047600A4F3F6807F4E051890A0B4FFF
:100A20007A5C4768D7408760054F3F6807F46041AC
:100A3000490B064F7A5C4768D740C760F0BD00009D
:100A4000083802400024F40000127A006C000020F4
:100A5000704700000CB500200190009034480068F9
:100A600040F480303249086000BF3148006800F42B
:100A7000003000900198401C0190009818B901982E
:100A8000B0F5A04FF1D12A48006800F4003010B151
:100A90000120009001E0002000900098012846D13C
:100AA00023484030006840F08050214940310860C0
:100AB0002048006840F440401E4908601C48083047
:100AC00000681B49083108600846006840F400408F
:100AD00008600846006840F4A05008601648091FE6
:100AE0000860081F006840F08070091F086000BFA0
:100AF0000F48006800F000700028F9D040F205703F
:100B00000E4908600A480830006820F003000849D0
:100B1000083108600846006840F00200086000BF25
:100B200003480830006800F00C000828F8D10CBD1C
:100B3000003802400070004008544007003C02406A
:100B400010B500F01DF910BD10B51548006840F44F
:100B50007000134908601348006840F00100114913
:100B6000086000200F49083108600E4800680E49EF
:100B700008400C4908600D48091D0860081F0068FE
:100B800020F48020091F0860002006490C3108600D
:100B9000FFF760FF4FF0006001498039086010BD29
:100BA00088ED00E000380240FFFFF6FE1030002420
:100BB0000349086000BF024909680029FBD170475A
:100BC0007C00002030B51F4800684FF47A72B0FBFB
:100BD000F2F1481EB0F1807F01D301201BE0481ED6
:100BE0004FF0E022506150170F22002804DB13075A
:100BF0001C0E154B1C5406E013071D0E134B00F082
:100C00000F04241F1D5500BF00204FF0E02290610B
:100C100007201061002098B100BFBFF34F8F0B4831
:100C20000C38006800F4E06009490843001D0749DA
:100C30000C390860BFF34F8F00BF00BF00BFFDE756
:100C400030BD00000000002000E400E018ED00E0EE
:100C50000000FA0521B1028842F00102028004E09E
:100C600002884FF6FE731A400280704770B5002468
:100C700000220023058C4FF6FE7635400584028C59
:100C80008388048B4FF68F752C40B51E2C400D8841
:100C90002C43751E2A408D892A434D882A43104DC6
:100CA000A84202D00F4DA84213D14FF6F7752A4043
:100CB000CD892A434FF6FB752A408D882A434FF68B
:100CC000FF652B404FF6FF552B400D8A2B434D8A75
:100CD0002B43838004838D684563028470BD0000CC
:100CE00000000140000401400A460021018B4FF63C
:100CF000F7731940114301837047000000220288F6
:100D0000184B98420ED0184B98420BD0B0F1804F40
:100D100008D0164B984205D0154B984202D0154B7F
:100D2000984204D14FF68F731A404B881A43124BE6
:100D3000984207D0114B984204D04FF6FF431A4017
:100D40000B891A4302804B68C3620B880385054BED
:100D5000984202D0044B984201D18B7A038601233A
:100D600083827047000001400004014000040040FD
:100D700000080040000C004000100040001400403B
:100D80000448006820B103480068401E014908601B
:100D9000704700007C00002021B1828942F400529B
:100DA000828104E082894DF6FF731A408281704788
:100DB0001AB1838A0B43838202E0838A8B43838246
:100DC000704700002DE9FF4705460E460024A14666
:100DD00000BFA046B08900B100BF2C8A24F4405463
:100DE000F08804432C82AC8941F20C608443B088C3
:100DF00031890843718908430443AC81AC8A24F4E7
:100E00004074B0890443AC826846FFF7ADFD2048CA
:100E1000854202D01F48854202D1DDF80C9001E0E6
:100E2000DDF80890A88900F4004040B109EBC90042
:100E300000EB091031684900B0FBF1F707E009EB5E
:100E4000C90000EB091031688900B0FBF1F764209C
:100E5000B7FBF0F004012009642101FB1078A88998
:100E600000F4004040B1322000EBC800B0FBF1F0CC
:100E700000F00700044308E0322000EB0810642172
:100E8000B0FBF1F000F00F0004432C81BDE8FF87B8
:100E9000001001400014014000BFFEE700B599B00A
:100EA00001210846FFF730FD0121C804FFF73CFD92
:100EB00001214805FFF728FD01210820FFF724FD47
:100EC00001210420FFF730FD082200216A48FFF7C6
:100ED000F8FA082201216848FFF7F3FA02220C21F0
:100EE0006648FFF7EEFA4FF48050179000208DF817
:100EF00062008DF8630002208DF8600003208DF8F9
:100F0000610017A95D48FFF794FA5320ADF804007B
:100F10000020ADF8060042F20F7002900020ADF8FC
:100F20000C008DF80E0001A95548FFF7E7FE0121DE
:100F30005348FFF78FFE0120179002208DF86000C4
:100F400000208DF8620001208DF8630002208DF8EA
:100F5000610017A94848FFF76CFA022017908DF836
:100F6000600017A94448FFF764FA4FF4E13013908A
:100F70000020ADF85000ADF85200ADF85400ADF8C7
:100F800058000C20ADF8560013A93E48FFF71AFF91
:100F900001213C48FFF700FF012280213948FFF77B
:100FA00007FF4FF0006004903648001D059036485A
:100FB00006904020079009200890002009904FF4E7
:100FC00080600A9000200B900C900D904FF4003040
:100FD0000E9000200F900120109000201190129090
:100FE00004A92A48FFF7F8F901212848FFF7CCF9AE
:100FF000012240212348FFF7DBFE4FF00060049000
:101000002048001D059022480690002007900420EB
:101010000890002009904FF480600A9000200B9007
:101020000C900D904FF400300E9000200F90012096
:10103000109000201190129004A914483038FFF746
:10104000CBF9012111483038FFF79EF90D208DF8BA
:10105000000000208DF801008DF8020001208DF8BD
:1010600003006846FFF712FC0122102107483038C0
:10107000FFF795F919B000BD00000240000C0240D6
:1010800000080040004C00408000002070600240DA
:10109000180000202DED088B86B0FFF793FDFFF7B9
:1010A00063FAFFF7FBFE6020ADF804000120ADF805
:1010B00006000020ADF81000FEE08048C07830380F
:1010C0000A2190FBF1F17D4842780078303800EB3E
:1010D000800002EB40003038084400EE100AB8EE01
:1010E000C00A774880ED000A0420764B0022B82120
:1010F00000907548FFF73EFB4FF4FA70FFF758FD7C
:101100007048407800EE100AB8EE400AB2EE041AB9
:10111000C0EE010A6B48007800EE100AB8EEC00A73
:1011200030EE800A694880ED000A6648C07800EE1B
:10113000100AB8EE400A10EE101A084600F01AFD28
:1011400041EC1B0B9FED620B53EC102B00F0CEF922
:1011500041EC190B5B48807800EE100AB8EE400AAB
:1011600010EE101A084600F005FD41EC1A0B53EC86
:10117000192B00F007F941EC180B00F0D1F8564993
:10118000086050480078554908604E4880785449B6
:101190000860524800680A2190FBF1F03030514954
:1011A00008704E4800680A2190FBF1F000EB8000C7
:1011B0004A490978A1EB400030304A4948702E2056
:1011C00088704048C0783030C87026200871444884
:1011D00000680A2190FBF1F03030424948714048E4
:1011E00000680A2190FBF1F000EB80003C4909788F
:1011F000A1EB400030303B4988712E20C871314846
:101200004078303008729FED380B53EC102B384883
:1012100090ED000B51EC100B00F0C0FA10D19FEDD7
:10122000350B334880ED000B34493548FFF778F82B
:10123000092033497039486701213148FFF7A4F884
:101240002548006800F096FC41EC180B9FED2D0B33
:1012500053EC102B00F06EFB09D80020039001A97D
:101260002A48FFF703FD08212848FFF73DFD1A48EB
:10127000006800F07FFC41EC180B9FED250B53EC50
:10128000102B00F0C7FA0AD242F20F70039001A9A6
:101290001E48FFF7EBFC08211C48FFF725FD9FEDDA
:1012A0001E0B53EC102B124890ED000B51EC100B61
:1012B00000F068F80E4A03C2FFE600001C000020A0
:1012C000580000204000002000540040280000206A
:1012D0000000000000002440240000203000002016
:1012E0002C000020800000200000000000000040D2
:1012F0003800002000000000000000002000002056
:10130000706002400000000000C042400008004041
:101310000000000000404340000000000000F03FDB
:1013200021F00042A2F16052B2F5801F01F00043AB
:1013300028BFD2F17F6C0BD95FEA001C43EAC202DE
:1013400042EB507018BF704728BF20F00100704773
:10135000B2F5801FBCBF184670474FEA410C1CF520
:10136000001F02D2084600F07BBC70B500F08EFA78
:1013700000000089FFF7F6BF4FF00040A0F58000A5
:101380007047000010B591EA030F48BF83F0004397
:1013900000F10E83841A71EB030C05D2121943EB92
:1013A0000C03001B61EB0C01DFF824E14FEA115440
:1013B000A4EB135C1EEA430F18BF9EEA445F73D090
:1013C00023EA0E03DCF1200E21EA045143F48013DA
:1013D00032D322FA0CFE10EB0E0023FA0CFE41EB86
:1013E0000E01CCF1200E03FA0EFE10EB0E0051F1AF
:1013F0000001B1F5801FCCF1200E32D201EB045177
:1014000012FA0EF2BDE8104058BF7047401C38BFBA
:101410005FEA420218BF7047002814BF20F00100A5
:1014200041F100014FEA410313F5001F38BF704737
:10143000A1F1C04100F078BA012A43EB0302ACF1FC
:10144000200CDCF11F0E32BF4FF0000E23FA0CF31C
:1014500010EB030041EB0451B4EB115FD0D0A1EBD2
:10146000045101F5801149085FEA300001EB045195
:101470000ED350F1000038BF12FA0EFE08D1BDE8BD
:101480001040C9E7401C38BF5FEA4202CAD1C3E737
:10149000BDE810404FEA410313F5001F38BF704705
:1014A000A1F1C04100F040BA9EEA445F08D011EAC1
:1014B0005E0FBDE8104004BF01F0004100207047FE
:1014C000BDE8104070B500F0E1F900BF64FBBE3E1E
:1014D0000000E0FF491058BFC1F140415B1058BF08
:1014E000C3F140438B42EFF3008070472DE9C041C8
:1014F00030B4DFF8A0C23CEA111418BF3CEA131460
:1015000000F0EC8081EA03051CEA111444EAD5746A
:1015100018BF1CEA131500F0C780A4EB05044FF0B8
:10152000004545EAC12145EAC32341EA505143EA57
:10153000525304F17F74994204F500344FEAC020FD
:101540004FEAC22208BF904200F09C804FEA136528
:101550000FF24016765D4FEA134506FB05F7C7F11B
:10156000807706FB07F74FEAD737A7FB0368764279
:10157000C8F58038A7FB06CE38BFA8F1010807FBE5
:1015800008E64FF0000EA6FB028CE6FB03CEDCF172
:10159000000CCEF1004E38BFAEF1010EA6FB0C5888
:1015A0004FF000074FF00005E6FB0E87A1FB08C6D1
:1015B000A0FB07CE16EB0E0645F10005E1FB076523
:1015C00015F1E04E7EBFA4F580345FEA46066D411A
:1015D00016F1800745F100054FEA17274FEA066626
:1015E00047EA0567A6F1DE46B6F1805F4FEA1525AA
:1015F0001FD9384624F0010C05EBC471BCF1FE6F15
:1016000001EB0C1102D8F0BCBDE8008124425CBFA4
:1016100001F5801E9EEAC47F02D4F0BCBDE80081C3
:10162000244238D4F0BCA1F1C041BDE8004100F033
:101630007BB94FEAD22242EA43524FEAD323A7FBB7
:1016400002864FEAD02040EA415007FB03661EEABB
:101650000E0F4FEAD12105FB026658BFA6EB0056DC
:10166000B6EB00564FEA520E4EEAC37E18EB0E0E52
:1016700056EB530EBDD518EB02085E417F1C55F1A9
:101680000005B6E74FF480154FF000074FF0000655
:101690004FF00008ADE7F0BC4FF0000001F1C04191
:1016A00001F00041BDE8008111EA0C1F0CEA13159E
:1016B00000D00CE013EA0C1F00F025804FF0000072
:1016C000F0BC81EA030101F00041BDE80081F0BCFB
:1016D000BDE8004181EA030100F026B9F0BCBDE895
:1016E000004170B500F0D2F8097EFC3E00F007B86A
:1016F00081EA03014FF0000001F00041704781EAE8
:10170000030100F011B9F0BCBDE800414FF000004A
:1017100021497047FFFDFBF9F7F5F4F2F0EEEDEB30
:10172000E9E8E6E4E3E1E0DEDDDBDAD8D7D5D4D3DF
:10173000D1D0CFCDCCCBCAC8C7C6C5C4C2C1C0BF2B
:10174000BEBDBCBBBAB9B8B7B6B5B4B3B2B1B0AF31
:10175000AEADACABAAA9A8A8A7A6A5A4A3A3A2A115
:10176000A09F9F9E9D9C9C9B9A99999897979695D0
:1017700095949393929191908F8F8E8E8D8C8C8B6C
:101780008B8A8989888887878685858484838382F4
:10179000828181800000FF070000F87F51EA030C7E
:1017A00017D41CF5801F58BFBCF5801F00F10680C0
:1017B000994218BF704708BF9042704707D711F58C
:1017C000801F58BF13F5801F19D499427047894272
:1017D00070471CF5801F08D5BCF5801FF7D58B42DC
:1017E00018BF704708BF824270474FF4001C1CEBC3
:1017F000410F38BF1CEB430F01D28B42704770B5CD
:1018000000F044F8922449004FF000514FF080530B
:10181000FFF760BE51EA030C17D41CF5801F58BFB8
:10182000BCF5801F00F10680994218BF704708BFC1
:101830009042704707D711F5801F58BF13F5801FDE
:1018400019D499427047894270471CF5801F08D50A
:10185000BCF5801FF7D58B4218BF704708BF824286
:1018600070474FF4001C1CEB410F38BF1CEB430FBB
:1018700001D28B42704770B500F008F892244900FD
:101880004FF000514FF08053FFF724BE0EF1020ECF
:101890002EF0030E5EF8046B364205D4012A43EBAA
:1018A000030515F5001F12D8012841EB010C1CF5AA
:1018B000001F0CD80ED14FEAD17C15F5001F0CEBA0
:1018C0004C0C0CF1020C08BF4CEBD37C04E04FF045
:1018D000080C01E04FEAD37C0CEB4C0526FA05F628
:1018E00006F00706B6F1040C06D20EEB860CBDE836
:1018F00070404CF0010C6047DFE80CF0090B02026D
:101900004FF000414FF00000A1F5002170BD1946D5
:101910001046012851EB010418BFD4F5001484BF10
:10192000002001F0004170BD0808A0F500114FEA49
:101930003101704753EA010C17D41CF5801F58BFC2
:10194000BCF5801F00F106808B4218BF704708BFAE
:101950008242704707D713F5801F58BF11F5801FCB
:1019600019D48B4270479B4270471CF5801F08D5E5
:10197000BCF5801FF7D5994218BF704708BF904249
:1019800070474FF4001C1CEB430F38BF1CEB410F9A
:1019900001D2994270470FB40CBC03BCFFF76BBF78
:1019A00010B591EA030F48BF83F000433FF5F2AC56
:1019B000841A71EB030C07D212198CF0004C43EB24
:1019C0000C03001B61EB0C01DFF8A4E14FEA11549A
:1019D000A4EB135C1EEA430F18BF9EEA445F00F0BD
:1019E000B08023EA6E03524221EA0451C3EB6E0336
:1019F00038BF5B1EDCF1200E25D322FA0CFE10EB63
:101A00000E0043FA0CFE41EB0E01CCF1200E03FA5E
:101A10000EFE10EB0E0051F10001CCF1200E29D486
:101A200012FA0EF201EB0451BDE8104058BF7047A6
:101A3000401C1CBFB2F1004F704700280CBF491C6E
:101A400020F00100704712EB020E43EB030218BFB7
:101A50004FF0010E4EEA4202ACF1200CDCF11E0EFA
:101A600054D943FA0CFE10EB0E0051F1FF31CCF1CA
:101A70001E0ED5D50EF1010E12FA0EFE404141EBBD
:101A8000010101EB445C5FEA5C5C10D910EBDE7095
:101A900001EB045138BFBEF1004FBDE8104018BF44
:101AA000704700280CBF491C20F00100704730D25D
:101AB0004FEAD42C11F5001124F400641BD0B1FAC4
:101AC00081F20B3AA41AA41ED2F12003914030FAFD
:101AD00003F31943904001EBCC71002C01EB04514E
:101AE000BDE81040A8BF704701F1C0414FF00000B1
:101AF00001F000417047B0FA80F310FA03F100D111
:101B000010BDE41A173C4805C90AE4E701EB04518B
:101B100010BD491001EB0451BDE810404FEA300000
:101B200002E04FF0000170474A0008BF0042F8D0C1
:101B3000B2F5001F28BF704701F000414FF00000D0
:101B400070479EEA445F07D011EA5E0FBDE810407F
:101B500004BF002100207047BDE8104070B5FFF7BA
:101B600095FE00BF40DFF63E83F00041104670470F
:101B70000000E0FF43004FEAD30C4FEA3C0C434027
:101B80001FBF40070CF1605113F0FE4F70471CF06F
:101B9000006F03D100200CF0004170470CF00043AF
:101BA00043EA507010B540EACC0000F00EF800BFD8
:101BB000000000924FEA0001FFF7B6BE4FF000416F
:101BC0004FF00000A1F5002170470EF1020E2EF03B
:101BD000030E5EF8044B244204D44FEA4102B2F1F2
:101BE0007F4F11D84FEA4003B3F17F4F0CD80ED18D
:101BF0004FEAD07CB2F17F4F0CEB4C0C0CF1020C95
:101C000008BF4CEBD17C04E04FF0080C01E04FEA38
:101C1000D17C0CEB4C0324FA03F404F00704B4F178
:101C2000040C06D20EEB840CBDE810404CF0010C05
:101C30006047DFE80CF0070802024FF00040A0F513
:101C4000800010BD0846420018BFD2F1807288BFE4
:101C500000F0004010BD4FF04070E1EE100A7047F8
:101C6000FF2141EAD050C005704700008C1C0008DD
:101C70000000002080000000C40100080C1D0008C6
:101C80008000002070060000E0010008007A030ACE
:101C9000000000000000000001020304060708091C
:101CA0000000000000000000000000000000000034
:101CB0000000000000000000000000000000000024
:101CC0000000000000000000000000000000000014
:101CD0000000000000000000000000000000000004
:101CE000000000000000184266661E419A99993F64
:101CF0006666EE400AD7233C0000000001020304A0
:0C1D0000010203040607080900000000AF
:040000050800018965
:00000001FF
