:020000040800F2
:10000000A806002029020008E5070008650400088A
:10001000E1070008E30200084D0C000800000000A2
:10002000000000000000000000000000310900088E
:100030008D03000800000000E7070008210A0008FF
:10004000430200084302000843020008430200087C
:10005000430200084302000843020008430200086C
:10006000430200084302000843020008430200085C
:10007000430200084302000843020008430200084C
:10008000430200084302000843020008430200083C
:10009000430200084302000843020008430200082C
:1000A000430200084302000843020008430200081C
:1000B000430200084302000843020008430200080C
:1000C00043020008430200084302000843020008FC
:1000D00043020008430200084302000843020008EC
:1000E00043020008430200084302000843020008DC
:1000F00043020008430200084302000843020008CC
:1001000043020008430200084302000843020008BB
:1001100043020008430200084302000843020008AB
:10012000430200084302000843020008430200089B
:10013000430200084302000843020008430200088B
:10014000430200084302000843020008430200087B
:10015000430200084302000843020008430200086B
:10016000430200084302000843020008430200085B
:10017000430200084302000843020008430200084B
:10018000430200084302000800F002F800F03CF8C7
:100190000AA090E8000C82448344AAF10107DA45E2
:1001A00001D100F031F8AFF2090EBAE80F0013F0F8
:1001B000010F18BFFB1A43F001031847EC0C0000B5
:1001C0000C0D0000103A24BF78C878C1FAD8520745
:1001D00024BF30C830C144BF04680C6070470000C1
:1001E0000023002400250026103A28BF78C1FBD840
:1001F000520728BF30C148BF0B6070471FB500F0E1
:100200004DFE1FBD10B510BD00F031F81146FFF7CF
:10021000F5FF00F09DFD00F04FF803B4FFF7F2FF8B
:1002200003BC00F057F80000094880470948004720
:10023000FEE7FEE7FEE7FEE7FEE7FEE7FEE7FEE796
:10024000FEE7FEE704480549054A064B70470000F3
:10025000290A000889010008A8000020A80600203B
:10026000A8020020A802002070477047704775461A
:1002700000F02CF8AE4605006946534620F0070012
:10028000854618B020B5FFF7DDFFBDE820404FF0F0
:1002900000064FF000074FF000084FF0000B21F070
:1002A0000701AC46ACE8C009ACE8C009ACE8C0093D
:1002B000ACE8C0098D46704710B50446AFF3008026
:1002C0002046BDE81040FFF7A8BF00000048704777
:1002D0004400002001491820ABBEFEE726000200C2
:1002E000704700BFFEE700000246094B9A4201D268
:1002F000084801E00648103801F000531BB1064BD6
:100300000B40C36002E0044B0B4083607047000069
:1003100010640240006002407D0F7D0F21B1026831
:1003200042F00102026003E0026822F00102026072
:100330007047000010B500220268134B1A40CC68C9
:100340000B6823434C6923438C692343CC692343C3
:100350000C6A23434C6A23438C6A23434C6B23432C
:100360008C6B23431A430260426922F00702D1E9F1
:100370000B3423431A4342610B6943604B6883602B
:100380008B68C36010BD00003F801CF07047F0B563
:100390000A4600210023002400BF3DE0012505FAA4
:1003A00001F3156805EA03049C4234D105684F0047
:1003B0000326BE40B543056015794E00B54006687A
:1003C000354305601579012D02D01579022D16D11E
:1003D00085684F000326BE40B543856055794E00C1
:1003E000B540866835438560456801268E40B54333
:1003F0004560456896798E40B6B235434560C5681C
:100400004F000326BE40B543C560D5794E00B540C8
:10041000C6683543C560491C1029BFD3F0BDF0B58F
:10042000002300244D07ED0E02FA05F3CE1000F173
:10043000200555F826504E07F70E0F26BE40B5434F
:10044000CF1000F1200646F82750CE1000F120050D
:1004500055F8265045EA0304CE1000F1200545F872
:100460002640F0BD00BFFEE721B1028842F4806261
:10047000028004E002884FF6FF331A400280704782
:1004800070B502460024002500230020958A138BB6
:100490001B0445EA030626F07F4404EA01068E4267
:1004A00001D1012000E0002070BD21B1028842F09E
:1004B0000102028004E002884FF6FE731A400280B7
:1004C0007047000000B587B00121022000F08CF9D0
:1004D0000121022000F088F90121480500F094F97B
:1004E0000121480500F0A0F900214FF4001000F0B0
:1004F0009BF902208DF8180001208DF81A00402089
:10050000059002208DF8190000208DF81B0005A928
:100510001748FFF73CFF042206211548FFF77FFF2D
:10052000042207211248FFF77AFF8020059005A9D1
:100530000F48FFF72CFF0020ADF808004BF6FF70C6
:10054000ADF80A000020ADF80C004FF48060ADF863
:100550000E000001ADF810000648019001A9064800
:1005600000F042F801210448FFF79FFF07B000BDEB
:1005700000040240A08601000054004021B102881E
:1005800042F48072028004E002884FF6FF631A4052
:100590000280704721B1028842F40072028004E0B8
:1005A00002884FF6FF531A40028070470CB502468E
:1005B000002000230193009300920B0F019321F080
:1005C0007F41019B1BB1009B1433009303E0090C96
:1005D000009B18330093009B1B680B400BB101205C
:1005E00000E000200CBD00002DE9FF4704460D4649
:1005F0000026B1460427DFF8CC80A6884FF6C070ED
:100600000640684600F020F9DDF808802E48B8FB67
:10061000F0F01FFA80F946EA0906A68020884FF616
:10062000FE710840208000262849286888420CD89E
:1006300028684000B8FBF0F087B2042F00DA0427E6
:100640003E4309F10100208427E0E8884BF6FF7162
:10065000884206D1286800EB4000B8FBF0F087B272
:1006600009E0286800EBC00101EB0010B8FBF0F0D6
:1006700087B247F48047C7F30B0008B947F001077A
:1006800047F4004006434FF4967009FB00F04FF426
:100690007A7190FBF1F0401C2084A683208840F002
:1006A0000100208026884FF6F5300640A888698929
:1006B000084306432680A889298908432081BDE88C
:1006C000FF87000000127A0040420F00A086010060
:1006D0002DE9F0478046894615461E46089C0027AE
:1006E00014B90120BDE8F08700BF4FF40031404647
:1006F000FFF75CFF0028F8D101214046FFF7B4FE68
:1007000001214046FFF73AFF00BF2C494046FFF762
:10071000B7FE0028F9D000224946404600F056F8BE
:1007200000BF27494046FFF7ABFE0028F9D0294615
:10073000404600F053F800BF2149891C4046FFF7AE
:100740009FFE0028F8D001214046FFF717FF00BFA9
:100750001A494046FFF794FE0028F9D00122494685
:10076000404600F033F800BF1449491C4046FFF7EB
:1007700087FE0028F8D019E0012C07D1002140465F
:10078000FFF772FE01214046FFF704FF00BF0B494F
:100790003F314046FFF774FE0028F8D0404600F095
:1007A00011F8F055781CC7B2601E84B2002CE3D15A
:1007B00001214046FFF758FE002093E701000300A7
:1007C000820007000146088AC0B2704712B141F0AA
:1007D000010101E001F0FE010182704701827047D2
:1007E00000BFFEE77047704729B1064A126802430E
:1007F000044B1A6004E0034A12688243014B1A60FA
:10080000704700003038024029B1064A126802439E
:10081000044B1A6004E0034A12688243014B1A60D9
:10082000704700004038024029B1064A126802436E
:10083000044B1A6004E0034A12688243014B1A60B9
:100840007047000020380240F0B50021002200244B
:10085000022500260223324F3F6807F00C0121B128
:10086000042905D0082937D105E02E4F076036E06E
:100870002D4F076033E02A4F3F1F3F68C7F3805674
:10088000274F3F1F3F6807F03F036EB1264FB7FB6E
:10089000F3F7DFF88CC0ACF1040CDCF800C0CCF34B
:1008A000881C07FB0CF40CE01E4FB7FBF3F7DFF8D6
:1008B00070C0ACF1040CDCF800C0CCF3881C07FB62
:1008C0000CF4174F3F1F3F68C7F301477F1C7D00A3
:1008D000B4FBF5F7076002E0124F076000BF00BFEE
:1008E0000F4F3F6807F0F0010909104F7A5C076865
:1008F000D74047600A4F3F6807F4E051890A0B4F21
:100900007A5C4768D7408760054F3F6807F46041CD
:10091000490B064F7A5C4768D740C760F0BD0000BE
:10092000083802400024F40000127A002D00002054
:10093000704700000CB5002001900090344800681A
:1009400040F480303249086000BF3148006800F44C
:10095000003000900198401C0190009818B901984F
:10096000B0F5A04FF1D12A48006800F4003010B172
:100970000120009001E0002000900098012846D15D
:1009800023484030006840F08050214940310860E1
:100990002048006840F440401E4908601C48083068
:1009A00000681B49083108600846006840F40040B0
:1009B00008600846006840F4A05008601648091F07
:1009C0000860081F006840F08070091F086000BFC1
:1009D0000F48006800F000700028F9D040F2057060
:1009E0000E4908600A480830006820F003000849F2
:1009F000083108600846006840F00200086000BF47
:100A000003480830006800F00C000828F8D10CBD3D
:100A1000003802400070004008544007003C02408B
:100A200010B500F087F810BD10B51548006840F407
:100A30007000134908601348006840F00100114934
:100A4000086000200F49083108600E4800680E4910
:100A500008400C4908600D48091D0860081F00681F
:100A600020F48020091F0860002006490C3108602E
:100A7000FFF760FF4FF0006001498039086010BD4A
:100A800088ED00E000380240FFFFF6FE1030002441
:100A90000349086000BF024909680029FBD170477B
:100AA0004000002030B51F4800684FF47A72B0FB58
:100AB000F2F1481EB0F1807F01D301201BE0481EF7
:100AC0004FF0E022506150170F22002804DB13077B
:100AD0001C0E154B1C5406E013071D0E134B00F0A3
:100AE0000F04241F1D5500BF00204FF0E02290612D
:100AF00007201061002098B100BFBFF34F8F0B4853
:100B00000C38006800F4E06009490843001D0749FB
:100B10000C390860BFF34F8F00BF00BF00BFFDE777
:100B200030BD00000000002000E400E018ED00E00F
:100B30000000FA050448006820B103480068401E20
:100B400001490860704700004000002021B18289FF
:100B500042F40052828104E082894DF6FF731A400C
:100B6000828170471AB1838A0B43838202E0838AB1
:100B70008B438382704700002DE9FF4705460E46F0
:100B80000024A14600BFA046B08900B100BF2C8A56
:100B900024F44054F08804432C82AC8941F20C6068
:100BA0008443B08831890843718908430443AC8188
:100BB000AC8A24F44074B0890443AC826846FFF7E1
:100BC00043FE2048854202D01F48854202D1DDF80D
:100BD0000C9001E0DDF80890A88900F4004040B1D5
:100BE00009EBC90000EB091031684900B0FBF1F7CF
:100BF00007E009EBC90000EB091031688900B0FB80
:100C0000F1F76420B7FBF0F004012009642101FB37
:100C10001078A88900F4004040B1322000EBC800F1
:100C2000B0FBF1F000F00700044308E0322000EBD5
:100C300008106421B0FBF1F000F00F0004432C8198
:100C4000BDE8FF87001001400014014000BFFEE72F
:100C500000B595B001210846FFF7C6FD0121C80483
:100C6000FFF7D2FD01214805FFF7BEFD0822002154
:100C70003348FFF7D4FB082201213148FFF7CFFBAF
:100C80000120139002208DF8500000208DF85200B2
:100C900001208DF8530002208DF8510013A9284837
:100CA000FFF775FB022013908DF8500013A924481C
:100CB000FFF76DFB4FF4E1300F900020ADF84000DE
:100CC000ADF84200ADF84400ADF848000C20ADF896
:100CD00046000FA91B48FFF74FFF01211948FFF7F6
:100CE00035FF012280211748FFF73CFF4FF00060DD
:100CF00000901448001D019013480290402003907A
:100D000009200490002005904FF480600690002098
:100D10000790089009904FF400300A9000200B9043
:100D200001200C9000200D900E9069460748FFF7B7
:100D300001FB01210548FFF7F1FA15B000BD0000E5
:100D400000000240004C004014000020706002408F
:100D500008B5FFF7A7FEFFF7B5FBFFF779FF88E0BF
:100D60000420444B0022B82100904348FFF7B0FC18
:100D70004FF47A70FFF78CFE3E48407800EE100A80
:100D8000B8EE400AB2EE041AC0EE010A3948007803
:100D900000EE100AB8EEC00A30EE800A374880ED47
:100DA000000A3448C07800EE100AB8EE400AB2EEED
:100DB000041AC0EE010A2F48807800EE100AB8EE3F
:100DC000C00A30EE800A2E4880ED000A29480078DB
:100DD0002C490860274880782B490860294800681A
:100DE0000A2190FBF1F0303028490870254800684E
:100DF0000A2190FBF1F000EB800022490978A1EB79
:100E000040003030214948702E2088701948C07841
:100E10003030C870262008711B4800680A2190FBFA
:100E2000F1F0303019494871174800680A2190FBE9
:100E3000F1F000EB800014490978A1EB400030305C
:100E4000124988712E20C8710A48407830300872E3
:100E50000F491048FFF748FA09200E4970394867D2
:100E600001210C48FFF75AFA0B480078401C0A4948
:100E7000087075E729000020005400401C00002085
:100E80001800002024000020200000201400002072
:100E90002000002070600240280000204FF04070C9
:100EA000E1EE100A70470000C80E000800000020A4
:100EB00044000000C40100080C0F0008440000209A
:100EC00064060000E0010008007A030A0000000048
:100ED00000000000010203040607080900000000EA
:100EE0000000000000000000000000000000000002
:100EF00000000000000000000001020304010203E2
:0C0F0000040607080900000000000000C3
:040000050800018965
:00000001FF
